:020000040000fa
:080000000001040000000000f3
:020000040000fa
:100008003a0400003a0400003a0400003a040000f0
:100018003a0400003a0400003a0400003a040000e0
:100028003a0400003a0400003a0400003a040000d0
:100038003a0400003a0400003a0400003a040000c0
:100048003a040000481500003a0400003a04000091
:100058003a0400003a0400003a0400003a040000a0
:100068003a0400003a0400003a0400003a04000090
:100078003a0400003a0400003a0400003a04000080
:100088009c0100003a0200003a0400003a04000013
:100098003a0400003a0400003a0400003a04000060
:1000a8003a0400003a0400003a0400003a04000050
:1000b8003a0400003a0400003a0400003a04000040
:1000c8003a0400003a0400003a0400003a04000030
:1000d8003a0400003a0400003a0400003a04000020
:1000e8003a0400003a0400003a0400003a04000010
:0800f8003a0400003a04000084
:020000040000fa
:100108003a0400003a0400003a0400003a040000ef
:100118003a0400003a0400003a0400003a040000df
:100128003a0400003a0400003a0400003a040000cf
:100138003a0400003a0400003a0400003a040000bf
:100148003a040000481500003a0400003a04000090
:100158003a0400003a0400003a0400003a0400009f
:100168003a0400003a0400003a0400003a0400008f
:100178003a0400003a0400003a0400003a0400007f
:100188009c0100003a0200003a0400003a04000012
:100198003a0400003a0400003a0400003a0400005f
:1001a8003a0400003a0400003a0400003a0400004f
:1001b8003a0400003a0400003a0400003a0400003f
:1001c8003a0400003a0400003a0400003a0400002f
:1001d8003a0400003a0400003a0400003a0400001f
:1001e8003a0400003a0400003a0400003a0400000f
:0801f8003a0400003a04000083
:020000040000fa
:10020000cf9420000eff20000e01880000000000a7
:1002100000012000200288000c000700c0732100ac
:100220000100200011000700000020000000e00095
:10023000020032000000020000000000101702005f
:10024000000000000040da000000fe004440a90069
:10025000000020000000e000030032000000200049
:10026000a00188004440a800000006009101880019
:10027000800078000000eb0015003700e2804000ad
:1002800032a0b4009101ba00e280400032a0b40074
:100290009102ba00e280400032a0b4000002eb00fc
:1002a000472bde00f507b200602ce10004003a00a5
:1002b0000059eb008301e900fdff3e000400370018
:1002c0006128e100010032000082eb000400070019
:1002d0001101ba000200e000e8ff3a000000060049
:1002e0003159ba008301e9000c0032002159ba00eb
:1002f0008301e900080032000400e00003003a0036
:10030000e280400032a0b400f5ff370011d9ba00f6
:100310008301e900faff3a008100e800e180400033
:1003200032a0b40000000600000000000000000041
:1003300000000000000000003600f800809fbe00b2
:10034000829fbe00849fbe00869fbe003400f800de
:1003500000002000a00188000200fa008700a90028
:10036000c41080004322de006142620084427800b3
:10037000c41080004222de006142620004c27200aa
:1003800084427800c41080000402d10061426200ff
:1003900004cf7200e4108000144798001822a900ce
:1003a0001e427800e04f52002a003a00848d20005f
:1003b000144278008482fb00848920000482420079
:1003c0009e429000054a7800848d200014427800f7
:1003d0000442e8000002fd00d8e8b7000002fd007a
:1003e000858d20009542780004c4b30084cf52006c
:1003f00004003a000042eb000002fd00d8e8b7001c
:100400000002fd00a48d2000144278000442e800a0
:100410000002fd00dae8b7000002fd00a58d200013
:100420009542780004c4b30084cf520004003a001f
:100430000042eb000002fd00dae8b7000002fd0018
:10044000b4448000e00f520002003200b444800047
:10045000040001000080fa003400f9004f03be00e0
:100460004f02be004f01be004f00be003600f90033
:10047000004006003600f800809fbe00829fbe004c
:10048000849fbe00869fbe003400f800000020005c
:10049000a00188000000fa008720a900d491200064
:1004a00014427800e04f5200280032001d0037004f
:1004b000d4912000144278000442e9000002fd00bb
:1004c0001de9b7000002fd00c4912000144278002d
:1004d0008482fb00b48d2000048242001442780024
:1004e0000402fb00d4108800c4912000144278005c
:1004f0000442e8000002fd001ce9b7000002fd0014
:10050000c59120009542780004c4b30084cf520006
:1005100004003a000042eb000002fd001ce9b700b5
:100520000002fd00d491200014427800e04f5200f8
:1005300012003200c51080000420200004826200f6
:10054000e00f5200daff32000c003700000000001c
:10055000c51080000410200004826200e00f5200e9
:10056000fbff3200a4448000e00f52000300320081
:10057000a44480000000eb00040001000080fa00a9
:100580003400f9004f03be004f02be004f01be0011
:100590004f00be003600f900004006000400fa00db
:1005a000000f7800110798001e027800a44488000c
:1005b0001e029000b44488000042eb000400780062
:1005c0001de9b7000042eb0004007800dae8b7004c
:1005d0000042eb00040078001be9b7000042eb008a
:1005e00004007800d8e8b7000042eb00040078006f
:1005f0001ce9b7000042eb0004007800d9e8b7001e
:1006000054002000f410880004002800b410880072
:1006100004402800c41088008f20a8008f00a80084
:100620000080fa00000006000200fa00000f7800c7
:10063000a48d200014427800e04f520029003200bf
:10064000948d2000144278008482fb00848920006d
:1006500004824200144278009e027800844a7800a6
:10066000948d2000144278000442e8000002fd004e
:10067000d9e8b7000002fd00958d20009542780072
:1006800004c4b30084cf520004003a000042eb00df
:100690000002fd00d9e8b7000002fd00140280004e
:1006a0000450a0000460a0000470a00014028800a0
:1006b000a48d2000144278000442e9000002fd00ed
:1006c000dae8b7000002fd00140280000450a10027
:1006d0000460a1000470a10014028800140020002e
:1006e000010037000002eb00040078000080fa00ef
:1006f000000006000200fa00004f7800d5912000ab
:100700009542780004c4b30084cf52003b0032000d
:10071000140280000450a0000460a0000470a00037
:1007200014028800d491200014427800e04f520057
:1007300005003a00c51080000420200004826200f9
:10074000e00f52001d003200b491200014427800e6
:100750000483fb001e427800b58d20008502430013
:10076000844a7800b4912000144278000442e800e2
:100770000002fd001be9b7000002fd00b59120005a
:100780009542780004c4b30084cf520004003a00bc
:100790000042eb000002fd001be9b7000002fd0073
:1007a000d4912000144278000442e8000002fd00c9
:1007b0001de9b7000002fd0009003700a4448000d5
:1007c000e00f520003003200a4448000100020001b
:1007d000040001009e4278000582fb00d4108800ce
:1007e000140280000450a1000460a1000470a10064
:1007f0001402880014002000010037000002eb0002
:10080000040078000080fa00000006000600fa00ec
:1008100010079800210798000002eb00040f7800f1
:100820000a0037001e0278009e02900004824200f7
:100830001442780004407800aeff07000002780000
:10084000e00f5200060032001e0fe8009e02780002
:100850002e029000848f5200f2ff39000100370011
:10086000000000001e027800040078000080fa00fa
:10087000000006000040da000000fe000001be009b
:100880001c0007000470a70003f0a10003f8a300f8
:1008900013003a006509b10010003200090035006c
:1008a0006928e10002003500010028000000050071
:1008b00000004000818048008502e900fcff3a000a
:1008c00000000600f88f4200050035008100d100cd
:1008d0000080d3008502e800fcff3a00000006001b
:1008e0008000eb00000005004f89de0082017800e7
:1008f0009b023700c70ade00f107b200f50fb20015
:1009000008003200e1cf4200020032000170a00076
:1009100024000500810f700001003200040805006a
:1009200044000500810f700002003a001400050029
:100930008502e9000000400081c04800fcff3b0048
:100940000170a0002400050007f82700078361005c
:100950000638e10004003a00f707200087836100b1
:100960008703710001003a0003f0a200889fbe00d7
:100970008a9fbe008c9fbe00470ade000480a10053
:10098000c71ade000580a100070028000785600067
:1009900087856100f70f20000720e1009e003200ec
:1009a0000728e1009c003200010678000400e00006
:1009b000b4003200f7072000878060000170a000bb
:1009c0000500e000c0003200f707200087816100c9
:1009d0000370a000050652000f003a000b50e10022
:1009e0000b0032000308e10002003a000200e100bf
:1009f0007e0032000204500083845800040031005d
:100a00000001fd008101fd008402fd008a05fd005a
:100a10006044b800210037000520e10005003d00da
:100a20000001fd008101fd008402fd008a05fd003a
:100a3000050652007a60e100050035000170a10052
:100a40004722dd00848070008a80700063003700d8
:100a50006044b800ef02660007ff2f00070666003b
:100a60000500e00006003400f08312008714dd006a
:100a70000511de00071bdd00060171008519de008f
:100a80007060e100050035000904780082047800f8
:100a9000030178008001eb00700656000b50e10066
:100aa00003003a0002004000838048000400370041
:100ab00060041400e0841c00020058008380580089
:100ac0000188a300060032008100d1000080d3001d
:100ad0008984d3000884d3000402e800270037008b
:100ae0000178a30025003a000100e0000300320075
:100af0008186cf00698656000a0037008c002000ee
:100b00000000e00004003a00090078008804780042
:100b10000004eb00700252008086cf000d064600f4
:100b20000c06e9007060e1000600350080007800e6
:100b300009007800880478000004eb007006560075
:100b4000700252000c00e0000c0034008c08dd0044
:100b5000f00316000703de00868070000c00dd0045
:100b6000074bde00060070008c4cdd000743de0002
:100b7000868474000c44dd000c0252006120e10008
:100b800020003500610160000700280087816400b3
:100b9000f7ff270087836400070374000300e00069
:100ba0000600320082037300040032000000e800f7
:100bb000e08048000188a3000e003a00f70f2000f3
:100bc0000720e1004a003d000170a1004722dd003e
:100bd000810072008a8070000000be004f06be00d7
:100be0004f05be004f04be00000006006000b800c4
:100bf000faff37008100d1000080d3000402e80032
:100c0000eeff3700040178008901740057010700e6
:100c10008a807000f1ff3700360207000702780073
:100c20000001fd008101fd0032020700870278000b
:100c3000850372000778a300040032000001fd0064
:100c40008101fd000d010700e4ff3700850362000c
:100c50000768a300080032000b50e10003003200d7
:100c6000f0ff2f00f1ff2700dcff37000001fd003f
:100c70008101fd00d9ff37000468a300d7ff3200cf
:100c8000faff3700f8ff2700888360000b003a0066
:100c90000000e00009003a008303640082837300cf
:100ca000020032000200be00ccff37000b50e10012
:100cb000ceff3a000200be00c8ff3700140020003b
:100cc000810064003eff3700f8ff27008883610041
:100cd00004003a000200e00002003a008c007800b4
:100ce000beff3700150020008301640039ff370084
:100cf00001f827000000200081007500b7ff3700d1
:100d0000889fbe008a9fbe008c9fbe001b002000f3
:100d10000202be000586680006002800060666007e
:100d20004709de00f20fb200820032000243e80001
:100d300080003200c729de00f30fb2007d003200d0
:100d40000343e8007b003200f107b2000170a0000d
:100d5000f507b2000570a000c708dd004903de00fa
:100d6000868070004700dd00c72add004923de00d1
:100d7000868272004722dd00030551000403500003
:100d80008583580003003100000040008180480046
:100d90000a05e9008c1f78008a9fbe0004005000fd
:100da000858058000402420085824a00000040000d
:100db000818048000005eb000004be006033b800ed
:100dc0000406be000d48e100560031001100090084
:100dd0004dccd8000c01b8000d02b8008481410050
:100de00060824a008283530003045c0084845c00b8
:100df00060055d000a00e00025003a0080057800eb
:100e00000d40e100490031008800780007007800bb
:100e1000110009004d88d8000c01b8000d02b8007f
:100e20008481410060824a006003110083835b007b
:100e300004045c00e0845c000900e00021003a004a
:100e40004f01be000300e0002b003200e301600010
:100e5000070673008c81710001003200640070008d
:100e60004200de004e5edd000c007000c258de0065
:100e700001e0a000e7000700cf0178008180710049
:100e80004f06be004f05be004f04be000000060026
:100e90008c8343000d044c00e0844c0060054d0041
:100ea0000000e9000a00e000d4ff32008c83430018
:100eb0000d044c00e0844c0060054d000000e9008a
:100ec000ceff37000c0343008d834b0060044c00c1
:100ed000e0844c000000e9000900e000d8ff320087
:100ee0000c0343008d834b0060044c00e0844c00f5
:100ef0000000e900d2ff37004200de004e5edd0058
:100f00000c007000c258de0001e0a000cf017800a4
:100f10000300e000daff320060001000e0801800fb
:100f2000d7ff3700f0ff2f00aaff3700f0ff2f0098
:100f3000b9ff37000404be006e0107008706780081
:100f40000004fd008104fd006a01070007836600bc
:100f50000678a300030032000960a7000800be0065
:100f60002c0037000d78a300020032000800be00fc
:100f7000280037000778a30026003a0001f0a100fe
:100f800009f0a1000668a30003003200f1ff27006a
:100f9000f0ff2f00baff37000d68a30003003200f6
:100fa0000800be008c807000b5ff37000768a30002
:100fb00007003a000648a30003003200f1ff2700b3
:100fc000f0ff2f00aeff37000d48a30003003200f2
:100fd0006000b8008c807000a9ff37000748a300ac
:100fe0000400320001f82700000020008c8070000f
:100ff000a3ff37002a0007000004fd008104fd0064
:1010000002057800260007000802be008a01780069
:1010100059ff37000160a00012022000524a8800e8
:1010200097ff37000100e000120032000500e000e9
:1010300010003200889fbe008a9fbe008c9fbe00b9
:101040000006eb0001f8a30003003200600010006e
:10105000e08018000cf0a00005f8a30003003200a7
:1010600060021200e0821a000cf0a2008005eb0082
:1010700041ff37006000b800020005000478a300bb
:10108000040032000578a300030032000168a300c9
:1010900001003a000200be000160a000000006004e
:1010a0004f0ade004709de00f107b200f20fb2007e
:1010b0000b003200f207b1000170a000c708dd008c
:1010c000c901de00838070004700dd000400a60037
:1010d0000000060060001000e0801800000006001c
:1010e000810f700001003a00000006008182cf00ed
:1010f0000500e00010003e008082cf00ee8242003a
:101100007028e1000400390007003e0080007800ec
:101110000000eb000e003700708312008600de0036
:101120000500dd000a003700708352008600dd00f4
:101130000000eb0006003700e28252008508dd0067
:10114000708312000603de00868070000500dd005b
:101150007507b0000501ea000400a60000000600c3
:1011600060001000e0801800000006000100e000b0
:1011700026003200610111007810e10023003c00dc
:101180006022b8007010e100040035008002780091
:10119000010078008000eb00700151000200e000c7
:1011a0000900340070031100062add00822ade00e7
:1011b0008603dd00878272000200de00860bdd0000
:1011c000070070008208de0084817100f4ff2700b0
:1011d000048262008481710004002800848262001d
:1011e0006102600005f0a6000000060004827100a4
:1011f000070032000000e800e08048000000060020
:101200000002be006000b800efff37006000b800c9
:101210000000060081017000270032008002eb0010
:1012200001f8a3000300320060001000e080180005
:1012300015002000f40720000202420020003400c4
:10124000f70320008703600006042000000363000a
:1012500002082000000161004700de00c909dd002e
:1012600000807100c708de000600e00008003200c0
:1012700087037100060032001000b0000180b0004a
:101280000188a30002003200c108de000402e80069
:10129000f107b200f30f20000320e10003003d003e
:1012a0004722dd00810072002900370001f8270085
:1012b0000000eb00260037006000b80000000600c8
:1012c000680212007f20e100020034006000b800d4
:1012d0001f0037006011b8007020e10004003500e5
:1012e00080017800010078008000eb00700252005d
:1012f0000400e00009003400f00312000719dd00cb
:101300008419de000703dd00868171000400de0021
:10131000070bdd00060070008408de00f7ff2700e1
:1013200083836300870371000600280003036300c2
:10133000070032000700e00003003a00610160008e
:1013400002817300020032001000b0000180b00082
:101350000500a6000000060001f0a0000000060045
:10136000881f7800030478000300e00007003d00b8
:1013700060001000e080180060011900e081190091
:1013800002003b0001f02d000300370004000700bd
:1013900008f0a70001f0a0004f047800000006004c
:1013a000889fbe008a9fbe00008270000402710008
:1013b00004827100260032000004be000200be005c
:1013c0006011b8006b092000950220000182cf0057
:1013d0000a0039000541b1000082cf000700390042
:1013e0000541b1000982cf00040039000541b10078
:1013f0000882cf00010039000541b10005425200ca
:10140000120032000a003b00828171006101640019
:101410008100d1000080d3008984d3000884d300e8
:101420008b05e8000442e800f7ff3a0007003700a8
:101430000804440089844c00000048008180480072
:101440008b05e9000442e900f9ff3a0003000700b8
:101450004f05be004f04be000000060081002000c2
:10146000618055000b003d000b00200061fe2f0045
:101470000100e1001d0034008281710061016400ff
:101480008904d1000884d3000000e800faff3a0084
:101490007100200061006400030070000200600021
:1014a0000900320061044400e0844c000988a50072
:1014b000050032008b05e8006808e10002003a00f0
:1014c0008904d1000884d300f20f20000258e10003
:1014d00005003d00c75ddd00f907b2008980750099
:1014e00008007800000006000bf827008b00780049
:1014f000000005002700200001f0a70017002000d1
:10150000470bde00f60fb200040032000643e8008d
:101510000a0032004702b300000006000103780011
:10152000f607b2000603700002003a000703b3009a
:10153000000006008702b3000000060001037800e7
:10154000f607b20006037000020032000770a00028
:0c155000000006000760a000000006007c
:020000040000fa
:10155c000400fa00000f7800214798001e02780062
:10156c00e20f5200020036000082eb00050037004b
:10157c00148020001e024200ae429000054a780002
:10158c0014002000040078000080fa00000006001f
:10159c000400fa00000f7800214798001e02780022
:1015ac00e20f5200020036000082eb00050037000b
:1015bc00148020001e024200ae429000054a7800c2
:1015cc0014002000040078000080fa0000000600df
:1015dc000400fa00000f7800110798001e02780032
:1015ec00e20f5200020036000082eb000b003700c5
:1015fc001e029000e00f520002003a00e4ff2f00a0
:10160c0006003700148020001e02420014427800ad
:10161c009e029000844a7800140020000400780098
:10162c000080fa00000006000800fa00100798007d
:10163c0021079800320798009e0290002e0290001d
:10164c0004824200e30f520003003e002e02900081
:10165c00e00f520002003a000082eb005900370004
:10166c003e029000e00f520002003a00e4ff2f000f
:10167c00540037000002eb00040f7800060037001e
:10168c001e027800be029000848242000042eb00f1
:10169c00844a78001e0fe8009e0278002e0290000b
:1016ac000402e9004322de000402e800848f5200a9
:1016bc00f3ff39000002eb00040f7800390037000b
:1016cc009e0278001e02900084824200148020004a
:1016dc000482420014427800e04f5200180032009d
:1016ec001e02780043a2de00be029000048342007a
:1016fc001e02780043a2de00be029000048242006b
:10170c0014427800844278009e0378008400200004
:10171c00809fbe00110009008403d800800378006c
:10172c00010278004f00be0017002000043add00d3
:10173c000442780004c27200044b78001800370091
:10174c001e02780043a2de00be0290000483420019
:10175c001e02780043a2de00be029000048242000a
:10176c0014427800844278009e03780084002000a4
:10177c00809fbe00110009008403d800800378000c
:10178c00010278004f00be0017002000043add0073
:10179c000442780004c2ea0004c26200044b7800e0
:1017ac001e0fe8009e0278002e029000848f5200db
:1017bc00c3ff39002e0290000402e9004322de0030
:1017cc000402e800040078000080fa000000060023
:1017dc000400fa00000f7800110798001e02780030
:1017ec00e40f5200020036000082eb0007003700c5
:1017fc001e027800840242004480200004824200d1
:10180c009e029000050a7800140020000400780065
:10181c000080fa00000006000400fa00000f7800b7
:10182c00110798001e027800e40f520002003600e7
:10183c000082eb00070037001e0278008402420091
:10184c0044802000048242009e029000050a780029
:10185c0014002000040078000080fa00000006004c
:10186c000400fa00000f7800110798001e0278009f
:10187c00e40f5200020036000082eb000800370033
:10188c001e02780084024200448020000482420040
:10189c00940278001e029000050a780014002000c3
:1018ac00040078000080fa00000006000800fa002e
:1018bc001007980021079800320798009e029000ac
:1018cc002e02900004824200e50f520003003e00fd
:1018dc002e029000e00f520002003a000082eb0052
:1018ec00150037000002eb00040f78000d003700e4
:1018fc001e02780004024200be0290008482420064
:10190c001e0378001e0290000402430004034200f0
:10191c00448020000402430014027800840a7800fa
:10192c001e0fe8009e0278002e029000848f520059
:10193c00efff39001e027800040078000080fa00e6
:10194c00000006000a00fa002007980031079800f2
:10195c00420798004e02900014079800ae029000c7
:10196c003e02900004824200e50f52000500360052
:10197c003e029000e00f520002003a000082eb00a1
:10198c00250037000002eb00040f78001d00370023
:10199c001e027800040242009e02900084824200e3
:1019ac001e0378002e029000040243000403420040
:1019bc0044802000040243001402780048a2de0098
:1019cc0004427800844a78001e0278000402420027
:1019dc000402e8009e029000848242001e037800fc
:1019ec002e029000040243000403420044802000b5
:1019fc00040243001402780004427800844a780000
:101a0c001e0fe8009e0278003e029000848f520068
:101a1c00dfff39001e027800040078000080fa0015
:101a2c00000006000800fa00200798003107980013
:101a3c000002eb00140798000002eb00040f780082
:101a4c00090037001e027800ae02900004824200aa
:101a5c00144278000482fb009e0290000482420033
:101a6c00140798001e0fe8009e0278003e029000ba
:101a7c00848f5200f3ff39001e029000040078009e
:101a8c000080fa00000006000600fa00004f780003
:101a9c0011079800220798001e029000e00f5200d8
:101aac00030032002e029000e00f520002003a00b8
:101abc000082eb00210037009e4278000582fb007b
:101acc004422de00044278000443b0009e029000e1
:101adc00844a78009e4278006fc262000443b000d2
:101aec00ae029000844a78001e0290009442780066
:101afc0094c3b30084cf5200050036001e02900040
:101b0c0014427800674242009e029000844a78009a
:101b1c002e0290009442780094c3b30084cf5200fc
:101b2c00050036002e0290001442780067424200f5
:101b3c00ae029000844a7800140020000400780063
:101b4c000080fa00000006000400fa00000f780084
:101b5c0021479800324798001e027800e00f52008f
:101b6c0002003a000082eb001f003700ae429000ea
:101b7c0094c3b30084cf5200030034002e42900073
:101b8c006742520024479800be42900094c3b300b1
:101b9c0084cf5200030034003e4290006742520052
:101bac0034479800ae42900004cdb30004c242000a
:101bbc0024479800be42900004cdb30004c24200fa
:101bcc00344798002e4290000402fb004422dd00b2
:101bdc00844278003e42900004c272009e0278005b
:101bec00844a780014002000040078000080fa0079
:101bfc00000006000800fa00100798002107980062
:101c0c00320798001e029000e00f520003003200d1
:101c1c002e029000e00f520002003a000082eb000e
:101c2c001b0037000002eb00040f78001200370095
:101c3c001e027800040242000402e800ae0290008a
:101c4c00048342001e02780004024200ae0290009f
:101c5c00848242001e0278009e039000048243009e
:101c6c001442780006017800850078000440780062
:101c7c0085ff07001e0fe8003e0290009e027800d0
:101c8c00848f5200eaff35003e02900004024200ad
:101c9c00040078000080fa00000006000400fa003e
:101cac00004f7800110798001e427800040078005d
:101cbc0000e8b7000002eb00c440880004e72000f5
:101ccc00840078001e00900031fa07000080fa00b2
:101cdc00000006000200fa00f0023700444a8000bf
:101cec00cfa2de003600200007002000860f520035
:101cfc00878f5a00df023e000460010003003700aa
:101d0c000f003700580037008c0037009e429000bf
:101d1c00a4c3b30084cf5200d9023a0014002000af
:101d2c00444a88000002eb00944088000042eb001b
:101d3c000002fd0093e8b7000002fd00d702370057
:101d4c00954080001e429000e680200006834200f1
:101d5c00044b78000502e800944088009e429000f5
:101d6c00a4c3b30084cf520009003a001400200031
:101d7c00444a88000002eb00944088000042eb00cb
:101d8c000002fd0093e8b7000002fd00c30237001b
:101d9c0094408000e20f5200bb023a00f580200014
:101dac0095427800e48020001442780005417800c8
:101dbc0084407800b086200063ff07000480200078
:101dcc00144278008402fb00b48620001442780090
:101ddc000482fb00848f52000d003a002400200086
:101dec00444a8800b586200095427800348920004a
:101dfc001442780004c242000002fd0093e8b700d0
:101e0c000002fd000002eb0094408800a3023700a2
:101e1c00b486200014427800e04f52000f003a00c4
:101e2c0024002000444a8800b586200095427800a2
:101e3c00348920001442780004c242000002fd00e4
:101e4c0093e8b7000002fd000002eb00944088000c
:101e5c0014002000c4408800900237000002eb0000
:101e6c00444a88008d023700954080001e42900045
:101e7c00e680200006834200044b78000502e8004f
:101e8c00944088009e429000a4c3b30084cf5200bb
:101e9c0009003a0014002000444a88000002eb00bc
:101eac00944088000042eb000002fd0093e8b7006c
:101ebc000002fd007902370094408000e20f5200ce
:101ecc0073023a00f580200095427800e4802000ef
:101edc00144278000541780084407800b0862000d8
:101eec0019ff0700b4862000144278000002fd00a0
:101efc001ae8b7000002fd0034002000444a8800b4
:101f0c00b586200095427800348920001442780070
:101f1c0004c242000002fd0093e8b7000002fd007d
:101f2c000002eb00944088000002eb00b4408800f3
:101f3c000002eb00a4408800580237001e429000bb
:101f4c00ed4f520003003a0014002000b44088000a
:101f5c00520237001e429000ea4f520024003a0011
:101f6c00b4408000e10f520021003a000002eb0067
:101f7c00b4408800944080008402e900b4862000bc
:101f8c0004824200144f7800944080000402e9005f
:101f9c0084007800b0862000a2fe070000027800c2
:101fac0084427800348920001442780004c2420034
:101fbc000002fd0093e8b7000002fd003489200008
:101fcc00144278000442ea000002fd0093e8b700d6
:101fdc000002fd0034892000144278009e4f52000c
:101fec002e0032000002eb00444a88002b0237001e
:101ffc009e429000a4c3b30084cf520009003a0063
:10200c0014002000444a88000002eb009440880031
:10201c000042eb000002fd0093e8b7000002fd0057
:10202c001e023700a64080001e429000b5812000a1
:10203c0085024300844a7800a44080000402e80032
:10204c00a4408800a4408000e20f520012023a0023
:10205c00c48120001442780084427800b4812000ae
:10206c00144278009640800086037800b6862000e3
:10207c000683430005417800844078000600780010
:10208c00b1fe0700944080000402e80094408800f0
:10209c000002eb00a44088000002370000000000a2
:1020ac00a4812000144278000482fb006123b90053
:1020bc000082eb008082eb000602420087824a001d
:1020cc00f600200007002000860f5200878f5a0070
:1020dc0085013e00046001000f00370082013700cb
:1020ec00d3003700800137004a0037001201370057
:1020fc007d0137007c0137007b0137007a01370006
:10210c007901370078013700770137007601370005
:10211c007700370023013700b48620001442780082
:10212c008482fb00d4862000144278000482fb00d9
:10213c0004824200c822dd00c486200014427800cc
:10214c000482fb0084824200e48620001442780062
:10215c000482fb0004824200e30f52000a003c00a0
:10216c00d4862000144278000482fb00c822dd00d3
:10217c00e4862000144278000482fb0004824200b2
:10218c00e00f520003003a000002eb00444a8800c2
:10219c0058013700d4862000144278000482fb00da
:1021ac00c822dd00e4862000144278000482fb0083
:1021bc000482420084027800b48620001442780025
:1021cc000482fb004823dd00c48620001442780002
:1021dc000482fb0004024300c286200085007800c4
:1021ec000400780010fd070000027800044278001b
:1021fc000002fd006be8b7000002fd00b486200071
:10220c00144278000482fb000402e8009440880029
:10221c0038013700d486200014427800e14f420088
:10222c0015003a00e486200014427800e04f52007a
:10223c0011003a00b4862000144278000482fb009e
:10224c00c822dd00c4862000144278000482fb0002
:10225c000482420011c0b30004007800ccfc0700db
:10226c0000027800e10f42001e003a000002eb0071
:10227c00444a88001b003700d486200014427800a2
:10228c00e04f520015003a00e4862000144278001a
:10229c00e04f520011003a00b4862000144278003e
:1022ac000482fb00c822dd00c486200014427800a2
:1022bc000482fb00048242008040eb0004007800a2
:1022cc00b3fc070000027800e10f420005003a0061
:1022dc000002eb00444a8800020037000002eb00c9
:1022ec00444a8800440020009440880001013700d3
:1022fc00b4862000144278008482fb00d48620002f
:10230c00144278000482fb0004824200c822dd00e3
:10231c00c4862000144278000482fb0084824200b0
:10232c00e4862000144278000482fb000482420000
:10233c00e30f52000a003c00d486200014427800bf
:10234c000482fb00c822dd00e486200014427800e1
:10235c000482fb0004824200e00f520003003a00aa
:10236c000002eb00444a8800e20037000002eb0058
:10237c00a440880020003700a440800043a2de0067
:10238c00e5024200b4862000048242001442780028
:10239c008482fb00a640800084002000110009000c
:1023ac000403d800000378000102780004aade00c0
:1023bc000442780061426200b586200095427800a4
:1023cc008582fb00482bdd00c586200095427800f5
:1023dc008582fb0005034300a54080008502430075
:1023ec00844078000500780069fc0700a440800058
:1023fc000402e800a4408800d4862000144278002f
:10240c000482fb00c822dd00e48620001442780020
:10241c000482fb0084824200a4408000848f52001e
:10242c00d5ff3c004400200094408800b1003700e8
:10243c00b4862000144278008482fb00d4862000ed
:10244c00144278000482fb0004824200c822dd00a2
:10245c00c4862000144278000482fb00848242006f
:10246c00e4862000144278000482fb0004824200bf
:10247c00e50f52000a003c00d4862000144278007c
:10248c000482fb00c822dd00e486200014427800a0
:10249c000482fb0004824200e00f520003003a0069
:1024ac000002eb00444a880092003700b4862000fa
:1024bc000403e800d4862000144278000482fb0058
:1024cc00c822dd00e4862000144278000482fb0060
:1024dc000482420084027800b48620001442780002
:1024ec000482fb00c823dd00c4862000144278005f
:1024fc000482fb000482430006017800850078000a
:10250c00040078000ffd07000002780004427800f8
:10251c00044242000002fd006be8b7000002fd001f
:10252c00b4862000144278000482fb000402e80008
:10253c00944088006f003700d48620001442780045
:10254c000482fb00c822dd00e486200014427800df
:10255c000482fb0084824200b4862000144278007e
:10256c000482fb004823dd00c4862000144278005e
:10257c000482fb000402430085007800040078000c
:10258c00a5fc070000027800e10f420002003a00af
:10259c000002eb00444a880044002000944088006c
:1025ac0054003700b4862000144278008482fb006b
:1025bc00d4862000144278000482fb00048242007e
:1025cc00c822dd00c4862000144278000482fb007f
:1025dc0084824200e4862000144278000482fb00ce
:1025ec0004824200e50f52000a003c00d486200011
:1025fc00144278000482fb00c822dd00e48620002f
:10260c00144278000482fb0004824200e00f520066
:10261c0003003a000002eb00444a88003500370002
:10262c000002eb00a440880021003700a440800089
:10263c0004024200e5024200b486200004824200fb
:10264c00144278000482fb00c822dd00a440800004
:10265c00630242000402420004037800b4862000a6
:10266c0004024300144278000482fb00848242007e
:10267c00b4862000144278000482fb004823dd005d
:10268c00c4862000144278000482fb00040343003b
:10269c00a440800004024300850078000400780008
:1026ac005dfc0700a44080000402e800a440880000
:1026bc00d4862000144278000482fb00c822dd007e
:1026cc00e4862000144278000482fb0084824200dd
:1026dc00a4408000848f5200d4ff3c0044002000b2
:1026ec0094408800030037000002eb00444a880045
:1026fc0000000000444a8000e30f52005a003a00e8
:10270c00c4408000e00f520057003a00a4c3b3004d
:10271c00040078001be8b700048020001442780005
:10272c00d2812000c181200004407800d6fc070033
:10273c00a481200014427800f2812000e181200065
:10274c0004407800d0fc070094408000040178001d
:10275c0001822000b086200026fd070094408000f6
:10276c0084007800b0862000aefc070000027800e0
:10277c00044278000400780093e8b7003589200003
:10278c0095427800048020001442780004c2420074
:10279c000400780093e8b700358920009542780052
:1027ac00a48120001442780004c242000400780086
:1027bc0093e8b70034892000144278000442ea0000
:1027cc000400780093e8b700944080006302420054
:1027dc000402420084027800b48120000483420089
:1027ec009440800004024200e5024200b4812000c3
:1027fc00848242003489200014427800060178005b
:10280c0085007800044078009ffc0700944080000d
:10281c0004024200e7024200b4812000848242009c
:10282c00d4c0b300844a7800944080006402420013
:10283c000402420084027800b481200084824200a9
:10284c00a4c0b300844a7800944080000402420083
:10285c006902420084007800b0812000e8f707008c
:10286c000002eb00444a88000002eb00c4408800e0
:10287c000a0037000002eb00444a880007003700ca
:10288c0000000000050037000000000003003700c6
:10289c000000000001003700000000000e02e800fc
:1028ac00040078005df7070000027800e00f52008a
:1028bc000afd3a000080fa00000006000400fa004d
:1028cc00008fbe001e03be00443add00cc32de0099
:1028dc00850272004432dd000400be00fff70700e1
:1028ec000002be000401be0000002c0081b22400d6
:1028fc0000f907000002be000200200003f82300cc
:10290c000400be000df807000002be000400be006b
:10291c00d7f707000002be0004027800a41088005c
:10292c008d20a8008d40a9000d42a80074108000d5
:10293c000460a1000470a100741088000fe2a900cb
:10294c00c40480000440a1000450a0000460a00056
:10295c00c40488000de2a8000f42a8000042eb005e
:10296c00040078003ee9b700e4932000144278009c
:10297c00040078003ce9b700c493200014427800ae
:10298c00040078003de9b70000002e000101200092
:10299c004a0107000080fa00000006000200fa005d
:1029ac00004f78000000000075108000041020001b
:1029bc0004826200e00f5200fbff32009e4278005e
:1029cc000582fb00841088000080fa0000000600dd
:1029dc000200fa0000000000e4932000144278008a
:1029ec00e04f5200fcff3200140280000450a000a3
:1029fc000460a0000470a00014028800d49320008e
:102a0c00144278008482fb00e4912000048242008e
:102a1c00144f7800e4932000144278000442e9003b
:102a2c000002fd003ee9b7000002fd001402800028
:102a3c000450a1000460a1000470a10014028800dd
:102a4c00d4932000144278000442e8000002fd00f8
:102a5c003de9b7000002fd00d49320001442780039
:102a6c00fe4f520003003a000042eb0004007800d5
:102a7c003de9b7001e427800044078000080fa005f
:102a8c0000000600849fbe003400f8000400200003
:102a9c00a40188000200fa008520a900941080008f
:102aac00044f7800741080004322de006142620003
:102abc0084427800741080004222de006142620081
:102acc0004c2720084427800741080000402d100a9
:102adc006142620004c272000002fd003fe9b700cf
:102aec000002fd00f493200014427800e04f5200e5
:102afc0018003a00c4932000144278008482fb0032
:102b0c00e4912000048242001e4a7800c493200005
:102b1c00144278000442e8000002fd003ce9b700d2
:102b2c000002fd00c493200014427800fe4f5200b6
:102b3c0003003a000042eb00040078003ce9b700c7
:102b4c00e4932000144278000442e800040078006a
:102b5c003ee9b7000e22a9000080fa003400f9000b
:102b6c004f02be00004006000200fa000042eb00db
:102b7c000002fd003ee9b7000002fd00e4932000d6
:102b8c00144278000002fd003ce9b7000002fd0091
:102b9c00c4932000144278000002fd003de9b70008
:102bac000002fd000042eb00044f780007003700e4
:102bbc001e4278008482fb00e49120008482420053
:102bcc000042eb00844a78001e4fe8001e42780059
:102bdc00fd4f5200f6ff36000080fa0000000600a0
:102bec000000fa00e49320001442780004407800be
:102bfc000080fa00000006000200fa008e00780047
:102c0c001000200072fa07001e4278000440780081
:102c1c000080fa00000006000200fa00000f7800a5
:102c2c001e02780004427800614262000482fb00bc
:102c3c006102620016178000e5ff2f008502630019
:102c4c0004827200141788000080fa00000006004d
:102c5c000800fa00204798002107980032079800d6
:102c6c00c1ff07002e429000044078004bff070084
:102c7c0060c4b30049ff070050c4b30047ff07000e
:102c8c0000002200a10020008c000700d4ff0700e8
:102c9c0000427800e34f5200f1ff36004cff070072
:102cac0000427800044f780049ff0700004278008a
:102cbc00144798009e4278000582fb00c822dd0074
:102ccc001e4290000482fb00848272002e0290004f
:102cdc00050a78003eff070000427800044f780098
:102cec003bff070000427800144798009e42780092
:102cfc000582fb00c822dd001e4290000482fb000e
:102d0c00848272003e029000050a78000080fa006e
:102d1c00000006000200fa008e007800200020005f
:102d2c002bfa070030c5b3001cff070030c5b300f9
:102d3c001aff070030c5b30018ff07000100370069
:102d4c000000000025942000049420000501780068
:102d5c008400780060c5b300bdff0700140280003a
:102d6c000450a0000460a0000470a00014028800ad
:102d7c00044a8000840078001000200094fa0700b8
:102d8c00144a8000840078002000200090fa07008c
:102d9c00140280000450a1000460a1000470a10082
:102dac00140288001e427800e14f5200e4ff3a0002
:102dbc00659420004494200005017800840078007c
:102dcc00d0c4b300a2ff0700140280000450a0007e
:102ddc000460a0000470a00014028800244a800043
:102dec00840078003000200079fa0700344a800013
:102dfc00840078004000200075fa0700140280005f
:102e0c000450a1000460a1000470a1001402880009
:102e1c00ccff37000000fa00cdc2a90081e0a90068
:102e2c002161210020c0b3009cfb070000202c0076
:102e3c0011002000a1fe07000300370000802d00c8
:102e4c00010020001d0007006bff07000042780006
:102e5c00e04f5200f9ff3200aeff07000002eb001a
:0c2e6c00040078000080fa00000006005e
:020000040000fa
:102e78001e090000220000000000000040090000b8
:102e88000800000000000000000800009400000096
:102e980000000000480900000200000002000000d5
:102ea80000000000940800008a00000000000000f4
:102eb8004a090000020000000000000000000000b5
:020000040000fa
:102ec800f03fb1000180b10006003500ee030900b3
:102ed80000000000403fb1000180b100fbff3d0051
:102ee8001000b000203fb00002003500008009004b
:082ef8000000000000000600cc
:020000040000fa
:0200000401f009
:04000000f5bf000048
:020000040000fa
:0200000401f009
:04000400ff7f00007a
:00000001FF
